:100000000C949E000C94C6000C94C6000C94C60080
:100010000C94C6000C94C6000C94C6000C94C60048
:100020000C94C6000C94C6000C94C6000C94C60038
:100030000C94C6000C94C6000C94C6000C94C60028
:100040000C9445040C94C6000C9413040C94ED031A
:100050000C94C6000C94C6000C94C6000C94C60008
:100060000C94C6000C94C60007634236B79BD8A711
:100070001A39685618AEBAAB558C1D3CB7CC5763CD
:10008000BD6DEDFD753EF6177231BF000000803F7B
:1000900008000000BE922449123EABAAAA2ABECD97
:1000A000CCCC4C3E00000080BEABAAAAAA3E000009
:1000B0000000BF000000803F000000000008417801
:1000C000D3BB4387D1133D190E3CC3BD4282AD2B38
:1000D0003E68EC8276BED98FE1A93E4C80EFFFBE30
:1000E00001C4FF7F3F000000000000000008000284
:1000F00001000003040700000000000000000000F1
:100100000000250028002B0000000000240027002C
:100110002A00040404040404040402020202020289
:1001200003030303030301020408102040800102BB
:1001300004081020010204081020600B11241FBEC7
:10014000CFEFD8E0DEBFCDBF11E0A0E0B1E0ECEE34
:10015000FEE102C005900D92A232B107D9F722E06C
:10016000A2E2B1E001C01D92AB31B207E1F710E0AD
:10017000CEE9D0E004C02197FE010E94690FCD397D
:10018000D107C9F70E948F040C94740F0C940000DF
:1001900090E0FC01EA5DFE4F2491FC01EE5EFE4F13
:1001A0008491882399F090E0880F991FFC01E85F03
:1001B000FE4FA591B491FC01E250FF4F85919491BF
:1001C0008FB7F894EC91E22BEC938FBF0895CF9208
:1001D000DF92EF92FF920F931F93CF93DF936C0107
:1001E0007A018B01C0E0D0E0CE15DF0589F0D8019F
:1001F0006D918D01D601ED91FC910190F081E02D82
:10020000C6010995892B11F47E0102C02196ECCF1D
:10021000C701DF91CF911F910F91FF90EF90DF9079
:10022000CF900895089580E090E00895FC01538DEB
:10023000448D252F30E0842F90E0821B930B5417C0
:1002400010F0CF96089501970895FC01918D828D4D
:10025000981761F0828DDF01A80FB11D5D968C911A
:10026000928D9F5F9F73928F90E008958FEF9FEF25
:100270000895FC01918D828D981731F0828DE80FE1
:10028000F11D858D90E008958FEF9FEF0895FC019B
:10029000918D228D892F90E0805C9F4F821B910968
:1002A0008F73992708958EE291E00E94470121E023
:1002B000892B09F420E0822F0895FC01848DDF0151
:1002C000A80FB11DA35ABF4F2C91848D90E00196C9
:1002D0008F739927848FA689B7892C93A089B189B8
:1002E0008C9180648C93938D848D981306C00288C2
:1002F000F389E02D80818F7D80830895EF92FF92B6
:100300000F931F93CF93DF93EC0181E0888F9B8D38
:100310008C8D981305C0E889F989808185FD24C0FA
:10032000F62E0B8D10E00F5F1F4F0F731127E02E7D
:100330008C8DE8120CC00FB607FCFACFE889F9895A
:10034000808185FFF5CFCE010E945D01F1CF8B8DBD
:10035000FE01E80FF11DE35AFF4FF0820B8FEA898F
:10036000FB898081806207C0EE89FF896083E8890C
:10037000F98980818064808381E090E0DF91CF9172
:100380001F910F91FF90EF900895CF93DF93EC01B1
:10039000888D8823C9F0EA89FB89808185FD05C0A5
:1003A000A889B9898C9186FD0FC00FB607FCF5CFDF
:1003B000808185FFF2CFA889B9898C9185FFEDCF27
:1003C000CE010E945D01E7CFDF91CF91089580E0DB
:1003D00090E0892B29F00E94530181110C940000B8
:1003E000089590E0FC01E651FF4F3491FC01EA5D75
:1003F000FE4F2491FC01EE5EFE4FE491EE2309F4E2
:100400003BC0332339F1333091F038F43130A9F067
:10041000323001F584B58F7D12C0373091F038301D
:10042000A1F03430B9F4809180008F7D03C08091B9
:1004300080008F77809380000DC084B58F7784BD56
:1004400009C08091B0008F7703C08091B0008F7D8C
:100450008093B000F0E0EE0FFF1FE250FF4FA59138
:10046000B4918FB7F894EC91611103C020952E23BD
:1004700001C02E2B2C938FBF08958E3008F08E5024
:100480008770806480937C0080917A008064809380
:100490007A0080917A0086FDFCCF809178002091CF
:1004A000790090E0922B08953FB7F894809129014C
:1004B00090912A01A0912B01B0912C0126B5A89B07
:1004C00005C02F3F19F00196A11DB11D3FBFBA2FE6
:1004D000A92F982F8827820F911DA11DB11DBC0146
:1004E000CD0142E0660F771F881F991F4A95D1F70B
:1004F00008958F929F92AF92BF92CF92DF92EF9228
:10050000FF926B017C010E9454024B015C01C114FB
:10051000D104E104F104F1F00E945402DC01CB01AA
:1005200088199909AA09BB09883E9340A105B1051C
:1005300070F321E0C21AD108E108F10888EE880EB4
:1005400083E0981EA11CB11CC114D104E104F10484
:1005500019F7DDCFFF90EF90DF90CF90BF90AF9075
:100560009F908F9008958EBD00000DB407FEFDCFC3
:100570008EB508950F931F93CF93DF93EC01042F53
:100580006795662767956063162F152B8130910557
:1005900019F460E087E00AC08230910519F460E048
:1005A00088E004C0039701F560E089E00E94F10152
:1005B000812F0E94B302802F0E94B302C130D10567
:1005C00019F461E087E005C0C230D10541F461E073
:1005D00088E0DF91CF911F910F910C94F101239747
:1005E00069F461E089E0F5CF812F0E94B302802F8A
:1005F000DF91CF911F910F910C94B302DF91CF91B6
:100600001F910F910895CF93C82F60E085E00E945D
:10061000F1018C2F0E94B30261E085E0CF910C9430
:10062000F1018F929F92AF92BF92CF92DF92EF92A1
:10063000FF920F931F93CF93DF93E090D501F0903B
:10064000D601A090D701B090D8010091D9011091A6
:10065000DA01C091DB01D091DC01650185E0CC0CB1
:10066000DD1C8A95E1F7C70124E0880F991F2A95C0
:10067000E1F7C82AD92AC80136E0880F991F3A95B0
:10068000E1F7C82AD92ACE019695982F8827979501
:100690008795C82AD92AC501880F991F9801220F6A
:1006A000331F220F331F282B392B2E293F294E01B0
:1006B00073E0880C991C7A95E1F7822A932A60E00E
:1006C00085E00E94F101882D8C290E94B30261E02F
:1006D00085E00E94F1018091CB019091CC018130A5
:1006E0009105A9F491E0AA94AB2809F090E081E08B
:1006F000EA94EF2809F080E0982B81E001301105A1
:1007000009F080E0892B21F5219741F521C002975E
:10071000A9F591E0AA94AB2809F090E081E0EA9471
:10072000EF2809F080E0982B81E00130110509F0F5
:1007300080E0892B11F4219769F480912201909136
:10074000230101969093230180932201099734F4A9
:1007500061E005C0109223011092220160E086E062
:10076000DF91CF911F910F91FF90EF90DF90CF908D
:10077000BF90AF909F908F900C94F101DF91CF913B
:100780001F910F91FF90EF90DF90CF90BF90AF90AF
:100790009F908F9008950E946F0FEF92FF920F939A
:1007A0001F93CF93DF931F92CDB7DEB77C01FC017F
:1007B00000811181C80169830E948D0B69816817CE
:1007C00019F0C8010E94950BC7010F90DF91CF91DE
:1007D0001F910F91FF90EF9008951F920F920FB607
:1007E0000F9211242F933F934F935F936F937F93B7
:1007F0008F939F93AF93BF93EF93FF938EE291E01C
:100800000E945D01FF91EF91BF91AF919F918F91F8
:100810007F916F915F914F913F912F910F900FBEFC
:100820000F901F9018951F920F920FB60F921124E0
:100830002F938F939F93EF93FF93E0913E01F0915D
:100840003F018081E0914401F091450182FD12C099
:100850009081809147018F5F8F73209148018217AB
:1008600051F0E0914701F0E0E25DFE4F958F8093FB
:10087000470101C08081FF91EF919F918F912F914E
:100880000F900FBE0F901F9018951F920F920FB6EA
:100890000F9211242F933F938F939F93AF93BF9306
:1008A0008091250190912601A0912701B091280106
:1008B0003091240123E0230F2D3720F40196A11D50
:1008C000B11D05C026E8230F0296A11DB11D20937E
:1008D00024018093250190932601A0932701B093D2
:1008E00028018091290190912A01A0912B01B091BA
:1008F0002C010196A11DB11D8093290190932A011D
:10090000A0932B01B0932C01BF91AF919F918F9138
:100910003F912F910F900FBE0F901F901895CF937E
:10092000DF9300D000D000D0CDB7DEB7789484B587
:10093000826084BD84B5816084BD85B5826085BDDB
:1009400085B5816085BD80916E00816080936E0069
:10095000109281008091810082608093810080915B
:10096000810081608093810080918000816080930C
:1009700080008091B10084608093B1008091B000CC
:1009800081608093B00080917A00846080937A00C7
:1009900080917A00826080937A0080917A008160F1
:1009A00080937A0080917A00806880937A00109218
:1009B000C10080910E010E94C80080910C010E942C
:1009C000C80080910A010E94C80087E00E94C80008
:1009D00088E00E94C80089E00E94C80085E00E946B
:1009E000C80086E00E94C8001FB7F89480912D01CE
:1009F000811124C0ECE1F1E08491E0E3F1E0949115
:100A0000E82FF0E0EE0FFF1FE85FFE4FA591B491D5
:100A1000EC91E92321F461E08AE00E94F1018AE08F
:100A20000E94C8008CB580618CBD8CB580648CBD83
:100A30008DE00E94C8008BE00E94C80080912D01CB
:100A40008F5F80932D011FBF8CB58C7F8CBD8DB5C2
:100A500081608DBDE0913E01F0913F0182E0808395
:100A6000E0913A01F0913B011082E0913C01F0915C
:100A70003D018FEC808310924601E0914201F0919C
:100A8000430186E08083E0914001F0914101808143
:100A900080618083E0914001F09141018081886014
:100AA0008083E0914001F0914101808180688083E2
:100AB000E0914001F091410180818F7D808364E667
:100AC00070E080E090E00E94790281E090E00E9476
:100AD0008D0BC82ED12CD092D401C092D30182E0CC
:100AE00090E00E948D0BE82EF12CF092FA01E0923A
:100AF000F90183E090E00E948D0B082F10E0109325
:100B0000CC010093CB0184E090E00E948D0B282F54
:100B100030E030930901209308018FEFC816D1040B
:100B200031F481E090E09093D4018093D3019FEF62
:100B3000E916F10431F481E090E09093FA0180939A
:100B4000F9010F3F110531F481E090E09093CC0161
:100B50008093CB012F3F310521F4109209011092AF
:100B6000080101E010E02BE0C22E22E0D22EE12CA1
:100B7000F12CB7016170772770930F0160930E011C
:100B8000E1FA992490F890920C0110920D0157010E
:100B9000B594A794B594A794B0920B01A0920A01C2
:100BA00082E00E94F101692D83E00E94F1016A2D2B
:100BB00084E00E94F10182E10E943D022DEF3FE0BE
:100BC000DC010E94620F2FEF33E040E050E00E9412
:100BD000A30BD6012D933D936D01BFEFEB1AFB0ADA
:100BE000E8E0EE16F10429F68EE00E943D02BC0119
:100BF000990F880B990B0E943D0D2B013C016093CE
:100C00000702709308028093090290930A028FE012
:100C10000E943D02BC01990F880B990B0E943D0D6B
:100C20004B015C0160930302709304028093050200
:100C30009093060280E10E943D02BC01990F880B4F
:100C4000990B0E943D0D6B017C016093FF01709335
:100C50000002809301029093020281E10E943D0212
:100C6000BC01990F880B990B0E943D0D6B837C830F
:100C70008D839E836093FB017093FC018093FD0143
:100C80009093FE018091F9019091FA0182309105D3
:100C900061F18330910509F46BC0019709F0B2C08E
:100CA0004092F5015092F6016092F7017092F801BE
:100CB0008092F1019092F201A092F301B092F401BE
:100CC000C092ED01D092EE01E092EF01F092F001BE
:100CD0008B819C81AD81BE818093E9019093EA0173
:100CE000A093EB01B093EC018DC0C301B2010E944F
:100CF000370E20E030E04AEA53E40E94C30E6093CE
:100D0000F5017093F6018093F7019093F801C50106
:100D1000B4010E94370E20E030E04AEA53E40E941A
:100D2000C30E6093F1017093F2018093F3019093ED
:100D3000F401C701B6010E94370E20E030E04AEA14
:100D400053E40E94C30E6093ED017093EE01809313
:100D5000EF019093F0016B817C818D819E810E94D7
:100D6000370E20E030E04AEA53E40E94C30E42C04E
:100D700020E030E040E153E4C301B2010E94600C86
:100D80000E94DA0C6093F5017093F6018093F701ED
:100D90009093F80120E030E040E153E4C501B40154
:100DA0000E94600C0E94DA0C6093F1017093F201D2
:100DB0008093F3019093F40120E030E040E153E4AC
:100DC000C701B6010E94600C0E94DA0C6093ED012D
:100DD0007093EE018093EF019093F00120E030E0FA
:100DE00040E153E46B817C818D819E810E94600C87
:100DF0000E94DA0C6093E9017093EA018093EB01A1
:100E00009093EC0120E030E040EA50E46091F5017D
:100E10007091F6018091F7019091F8010E94F00D18
:100E200087FF13C0C090F501D090F601E090F70164
:100E3000F090F80120E030E040EA50E4C701B6014C
:100E40000E94F00D87FFF4C132C220E030E040EA9A
:100E500050E46091F1017091F2018091F301909161
:100E6000F4010E94F00D87FDDDCF20E030E040EA84
:100E700050E46091ED017091EE018091EF0190914D
:100E8000F0010E94F00D87FDCDCF8091E701909198
:100E9000E80101969093E8018093E7018031974241
:100EA00009F61092E8011092E70161E086E00E94E5
:100EB000F10162E370E080E090E00E94790260E07E
:100EC00086E00E94F10162E370E080E090E00E9421
:100ED000790261E086E00E94F10162E370E080E067
:100EE00090E00E94790260E086E00E94F10162E3F6
:100EF00070E080E090E00E94790261E086E00E946C
:100F0000F10162E370E080E090E00E94790260E02D
:100F100086E00E94F10162E370E080E090E00E94D0
:100F2000790261E086E00E94F10162E370E080E016
:100F300090E00E94790260E086E00E94F10162E3A5
:100F400070E080E090E00E94790261E086E00E941B
:100F5000F10162E370E080E090E00E94790260E0DD
:100F600086E00E94F10162E370E080E090E00E9480
:100F7000790282E090E09093E6018093E501809110
:100F8000E5019091E6010297E9F48EE00E943D02AE
:100F90000597ACF78FE00E943D02059784F780E14A
:100FA0000E943D0205975CF781E10E943D02059792
:100FB00034F71093E6010093E50180EF90E00E9482
:100FC0000303DDCFC12CD12C812C912CA12CB12C71
:100FD000612C712CB0E1EB2EB7E2FB2E82E0282EC3
:100FE000312C4090E5015090E601B1E04B165104E0
:100FF00009F018CF8EE00E943D0206978CF1672819
:1010000021F066246394712C2BC08091060190918D
:1010100007010196853091050CF40CC3509207012D
:1010200040920601E0900601F0900701B2E0EB1655
:10103000F10409F4F9C20CF0EBC2F1E0EF16F1048F
:1010400041F480E190E00E940303F092D401E09229
:10105000D30166246394712CF4ECEF2EF9E0FF2E9B
:101060008EE00E943D02059714F4612C712C8FE0F4
:101070000E943D020697A4F1AB2821F0AA24A39474
:10108000B12C2EC08091040190910501019684300D
:1010900091050CF4DAC21093050100930401E0906D
:1010A0000401F090050192E0E916F10409F4C7C2C9
:1010B000A3E0EA16F10409F4C5C2B1E0EB16F104AD
:1010C00041F480E190E00E940303F092FA01E09283
:1010D000F901AA24A394B12C64ECE62E69E0F62E63
:1010E0008FE00E943D02059714F4A12CB12C80E101
:1010F0000E943D02069754F1892821F088248394A8
:10110000912C24C0809102019091030101968330BB
:1011100091050CF4AAC2109303010093020180917F
:101120000201909103018130910509F093C29093DF
:10113000CC018093CB0180E390E00E9403038824DC
:101140008394912C34ECE32E39E0F32E80E10E945D
:101150003D02059714F4812C912C81E10E943D02FF
:1011600006975CF1C114D10441F580910001909182
:1011700001010196853091050CF49DC21093010187
:10118000009300018091000190910101823091054E
:1011900009F47FC20CF06EC2019741F4109209016C
:1011A0001092080180E190E00E940303CC24C394D4
:1011B000D12C94ECE92E99E0F92E81E10E943D02B8
:1011C000059734F4B1E0CB16D10411F4C12CD12C25
:1011D000E1E0EE1AF1081E141F040CF402CF109285
:1011E000E6011092E5016091D3011A830983CE01D3
:1011F00001960E94CD036091F9013A822982CE01C5
:1012000001960E94CD036091CB0183E090E09A8328
:101210008983CE0101960E94CD0360910801A4E06C
:10122000B0E0BA83A983CE0101960E94CD03D9CE46
:101230001093DE010093DD011093D6010093D501D8
:101240000E9411036091080170910901072E000CA2
:10125000880B990B0E943D0D4B015C019B01AC0179
:10126000C701B6010E94F00D18165CF5A5019401A6
:10127000C701B6010E94F30B6B017C016091D301A1
:101280007091D401072E000C880B990B0E943D0D24
:101290009B01AC01C701B6010E94C30E0E940C0D58
:1012A000AB0160E081E090E00E94BA020AC01092B7
:1012B000DE011092DD011092D6011092D5010E943C
:1012C0001103C090F101D090F201E090F301F09091
:1012D000F40120E030E040EA50E4C701B6010E948A
:1012E000F00D87FD3DC01093E0010093DF01609198
:1012F000080170910901072E000C880B990B0E94C0
:101300003D0D4B015C019B01AC01C701B6010E9480
:10131000F00D181604F5A5019401C701B6010E944D
:10132000F30B6B017C016091D3017091D401072E06
:10133000000C880B990B0E943D0D9B01AC01C7016D
:10134000B6010E94C30E0E940C0DAB0161E081E06A
:1013500090E00E94BA021093D8010093D70108C010
:101360001092E0011092DF011092D8011092D70183
:101370000E941103C090ED01D090EE01E090EF01CA
:10138000F090F00120E030E040EA50E4C701B601FF
:101390000E94F00D87FD3DC01093E2010093E10132
:1013A0006091080170910901072E000C880B990BC0
:1013B0000E943D0D4B015C019B01AC01C701B601D0
:1013C0000E94F00D181604F5A5019401C701B6019D
:1013D0000E94F30B6B017C016091D3017091D401E9
:1013E000072E000C880B990B0E943D0D9B01AC0150
:1013F000C701B6010E94C30E0E940C0DAB0160E054
:1014000082E090E00E94BA021093DA010093D901C1
:1014100008C01092E2011092E1011092DA011092DC
:10142000D9010E941103C090E901D090EA01E09037
:10143000EB01F090EC0120E030E040EA50E4C7011D
:10144000B6010E94F00D87FD3DC01093E4010093AA
:10145000E3016091080170910901072E000C880BCF
:10146000990B0E943D0D4B015C019B01AC01C70132
:10147000B6010E94F00D181604F5A5019401C701EC
:10148000B6010E94F30B6B017C016091D301709156
:10149000D401072E000C880B990B0E943D0D9B0177
:1014A000AC01C701B6010E94C30E0E940C0DAB0136
:1014B00061E082E090E00E94BA021093DC010093A8
:1014C000DB0108C01092E4011092E3011092DC01EC
:1014D0001092DB010E941103E091DD01F091DE0129
:1014E0006091DF017091E0012091E1013091E20112
:1014F0008091E3019091E40140910B0250910C0224
:10150000E49FD001E59FB00DF49FB00D1124E09051
:101510000D02F0900E026E9DA0016F9D500D7E9DFC
:10152000500D11244A0F5B1FE0900F02F090100243
:101530002E9DD0012F9DB00D3E9DB00D11244A0F60
:101540005B1FE0901102F09012028E9DD0018F9DE2
:10155000B00D9E9DB00D11244A0F5B1F5093D20118
:101560004093D101A0911302B0911402EA9F70013F
:10157000EB9FF00CFA9FF00C1124C0901502D09054
:1015800016026C9DD0016D9DB00D7C9DB00D112497
:10159000EA0EFB1EC0901702D09018022C9DD001BD
:1015A0002D9DB00D3C9DB00D1124EA0EFB1EC09088
:1015B0001902D0901A028C9DD0018D9DB00D9C9D7A
:1015C000B00D1124EA0EFB1EF092D001E092CF0183
:1015D0006E0F7F1F620F731F680F791F7093CE010C
:1015E0006093CD01672B31F440E050E061E082E090
:1015F00090E009C060E083E090E00E94BA02A70199
:1016000061E083E090E00E94BA020E94E701ABCA69
:1016100023E0E216F10459F084E0E816F10409F041
:1016200018CD80E890E00FCD80E290E00CCD80E412
:1016300090E009CD9093070180930601F3CC80E2FE
:1016400090E041CD80E490E03ECD90930501809301
:10165000040125CD8230910509F071CD9093CC0124
:101660008093CB0180EC90E068CD90930301809350
:10167000020155CD83309105A9F0049709F096CD6C
:10168000A8ECB0E0B0930901A093080180E890E0D5
:101690008BCDE2E3F0E0F0930901E093080180E2F2
:1016A00090E082CD84E690E0909309018093080158
:1016B00080E490E079CD909301018093000162CDA8
:1016C000EEE2F1E01382128288EE93E0A0E0B0E057
:1016D00084839583A683B78384E191E0918380839B
:1016E00085EC90E09587848784EC90E097878687E7
:1016F00080EC90E0918B808B81EC90E0938B828BDF
:1017000082EC90E0958B848B86EC90E0978B868BB7
:10171000118E128E138E148E0895F999FECF92BDFC
:1017200081BDF89A992780B50895262FF999FECFA3
:101730001FBA92BD81BD20BD0FB6F894FA9AF99AEE
:101740000FBE01960895052E97FB1EF400940E948B
:10175000BA0B57FD07D00E94C20B07FC03D04EF412
:101760000C94BA0B50954095309521953F4F4F4FB3
:101770005F4F089590958095709561957F4F8F4F3D
:101780009F4F0895A1E21A2EAA1BBB1BFD010DC09D
:10179000AA1FBB1FEE1FFF1FA217B307E407F50721
:1017A00020F0A21BB30BE40BF50B661F771F881FFD
:1017B000991F1A9469F760957095809590959B0193
:1017C000AC01BD01CF010895A29FB001B39FC0013C
:1017D000A39F700D811D1124911DB29F700D811D5D
:1017E0001124911D08955058BB27AA270E940B0C65
:1017F0000C94B60D0E94A80D38F00E94AF0D20F099
:1018000039F49F3F19F426F40C947E0D0EF4E09504
:10181000E7FB0C94780DE92F0E94C70D58F3BA1717
:10182000620773078407950720F079F4A6F50C94F6
:10183000E90D0EF4E0950B2EBA2FA02D0B01B90186
:1018400090010C01CA01A0011124FF27591B99F036
:10185000593F50F4503E68F11A16F040A22F232F42
:10186000342F4427585FF3CF469537952795A79592
:10187000F0405395C9F77EF41F16BA0B620B730B39
:10188000840BBAF09150A1F0FF0FBB1F661F771FAA
:10189000881FC2F70EC0BA0F621F731F841F48F45F
:1018A000879577956795B795F7959E3F08F0B0CFE8
:1018B0009395880F08F09927EE0F979587950895CF
:1018C0000E94740C0C94B60D0E94AF0D58F00E944B
:1018D000A80D40F029F45F3F29F00C94780D5111C8
:1018E0000C94EA0D0C947E0D0E94C70D68F39923A9
:1018F000B1F3552391F3951B550BBB27AA2762170C
:101900007307840738F09F5F5F4F220F331F441F18
:10191000AA1FA9F335D00E2E3AF0E0E832D091504C
:101920005040E695001CCAF72BD0FE2F29D0660F39
:10193000771F881FBB1F261737074807AB07B0E87C
:1019400009F0BB0B802DBF01FF2793585F4F3AF082
:101950009E3F510578F00C94780D0C94EA0D5F3F92
:10196000E4F3983ED4F3869577956795B795F79508
:101970009F5FC9F7880F911D9695879597F90895F0
:10198000E1E0660F771F881FBB1F6217730784078C
:10199000BA0720F0621B730B840BBA0BEE1F88F79B
:1019A000E095089529F416F00C94780D0C94E90D47
:1019B0000C947E0D0E94CF0DA8F39638A0F707F87F
:1019C0000F92E8942BE33AEA48EB5FE70E94D90EC6
:1019D0000F920F920F924DB75EB70F920E948F0E2B
:1019E000E8E6F0E00E94810D4F915F91EF91FF9149
:1019F000E595EE1FFF1F49F0FE57E0684427EE0F04
:101A0000441FFA95E1F74195550B0E94010E0F9086
:101A100007FE0C94F50D08950E94CF0D88F09F5796
:101A200098F0B92F9927B751B0F0E1F0660F771F02
:101A3000881F991F1AF0BA95C9F714C0B13091F0F8
:101A40000E94E90DB1E008950C94E90D672F782FFD
:101A50008827B85F39F0B93FCCF3869577956795BD
:101A6000B395D9F73EF490958095709561957F4F29
:101A70008F4F9F4F0895E89409C097FB3EF49095CF
:101A80008095709561957F4F8F4F9F4F9923A9F057
:101A9000F92F96E9BB279395F695879577956795E6
:101AA000B795F111F8CFFAF4BB0F11F460FF1BC02A
:101AB0006F5F7F4F8F4F9F4F16C0882311F096E9BD
:101AC00011C0772321F09EE8872F762F05C066236B
:101AD00071F096E8862F70E060E02AF09A95660F24
:101AE000771F881FDAF7880F9695879597F90895DD
:101AF00097F99F6780E870E060E008959FEF80ECC1
:101B00000895DF93CF931F930F93FF92EF92DF928D
:101B10007B018C01689406C0DA2EEF010E94D60E7C
:101B2000FE01E894A5912591359145915591A6F333
:101B3000EF010E940B0CFE019701A801DA9469F7EE
:101B4000DF90EF90FF900F911F91CF91DF9108955B
:101B500000240A941616170618060906089500248C
:101B60000A9412161306140605060895092E039406
:101B7000000C11F4882352F0BB0F40F4BF2B11F47A
:101B800060FF04C06F5F7F4F8F4F9F4F089557FDD9
:101B90009058440F551F59F05F3F71F04795880FDB
:101BA00097FB991F61F09F3F79F087950895121672
:101BB00013061406551FF2CF4695F1DF08C016161E
:101BC00017061806991FF1CF8695710561050894CF
:101BD0000895E894BB2766277727CB0197F90895E6
:101BE0000E94300F08F48FEF08959B01AC0160E074
:101BF00070E080E89FE30C94600C0C94780D0C94DA
:101C0000540F0E94CF0DD8F39923C9F3940F511D9F
:101C1000A3F39150504094F059F0882332F0660FAE
:101C2000771F881F91505040C1F79E3F51052CF7F8
:101C3000880F911D9695879597F908955F3FACF0B1
:101C4000983E9CF0BB27869577956795B79508F4E5
:101C5000B1609395C1F7BB0F58F711F460FFE8CF5F
:101C60006F5F7F4F8F4F9F4FE3CF0C94EA0D0E9421
:101C7000470E29ED3BE54EED5EE30C94C30E16F0E6
:101C80000C94540F0C947E0D68940C94780D0E9463
:101C9000CF0DA8F39923C1F3AEF3DF93CF931F9336
:101CA0000F93FF92C92FDD2788232AF02197660F13
:101CB000771F881FDAF720E030E040E85FEB9FE312
:101CC000883920F0803E38F021968F770E94F40BFF
:101CD000E0E9F0E004C00E94F40BEDEBF0E00E94BC
:101CE000810D8B01BE01EC01FB2E6F5771097595BB
:101CF000771F880B990B0E943D0D28E132E741E3E5
:101D00005FE30E94D60EAF2D9801AE01FF900F91B8
:101D10001F91CF91DF910E940B0C0C94B60DFA012C
:101D2000DC01AA0FBB1F9B01AC01BF5728F422277F
:101D300033274427507820C0B75190F4AB2F0024AC
:101D4000469537952795011CA395D2F3002071F095
:101D5000220F331F441FB395DAF30ED00C94F30B0C
:101D600061307105A0E88A07B94630F49B01AC01E7
:101D70006627772788279078309621F02083318353
:101D80004283538308950E94D60E0C94B60D0E9490
:101D9000A80D38F00E94AF0D20F0952311F00C949F
:101DA000780D0C947E0D11240C94EA0D0E94C70D41
:101DB00070F3959FC1F3950F50E0551F629FF0019E
:101DC000729FBB27F00DB11D639FAA27F00DB11DB7
:101DD000AA1F649F6627B00DA11D661F829F222740
:101DE000B00DA11D621F739FB00DA11D621F839FC7
:101DF000A00D611D221F749F3327A00D611D231F9D
:101E0000849F600D211D822F762F6A2F11249F57EA
:101E100050409AF0F1F088234AF0EE0FFF1FBB1FED
:101E2000661F771F881F91505040A9F79E3F5105AC
:101E300080F00C94780D0C94EA0D5F3FE4F3983E2B
:101E4000D4F3869577956795B795F795E7959F5F56
:101E5000C1F7FE2B880F911D9695879597F90895E8
:101E6000990F0008550FAA0BE0E8FEEF16161706AB
:101E7000E807F907C0F012161306E407F50798F013
:101E8000621B730B840B950B39F40A2661F0232B2C
:101E9000242B252B21F408950A2609F4A140A695A8
:101EA0008FEF811D811D08959F3F31F0915020F4E7
:101EB000879577956795B795880F911D9695879526
:101EC00097F908950E94E40BB7FF0895821B930BC6
:101ED0000895EE0FFF1F0590F491E02D099481E025
:0C1EE00090E0F8940C94740FF894FFCF7D
:101EEC0001000100010001003C000400030002009D
:101EFC00000000007E01E7001601C5014701250125
:021F0C00390199
:107800000C94343C0C94513C0C94513C0C94513CE1
:107810000C94513C0C94513C0C94513C0C94513CB4
:107820000C94513C0C94513C0C94513C0C94513CA4
:107830000C94513C0C94513C0C94513C0C94513C94
:107840000C94513C0C94513C0C94513C0C94513C84
:107850000C94513C0C94513C0C94513C0C94513C74
:107860000C94513C0C94513C11241FBECFEFD8E036
:10787000DEBFCDBF11E0A0E0B1E0ECE9FFE702C060
:1078800005900D92A230B107D9F712E0A2E0B1E065
:1078900001C01D92AD30B107E1F70E942D3D0C945F
:1078A000CC3F0C94003C982F959595959595959582
:1078B000905D8F708A307CF0282F295A8091C0000B
:1078C00085FFFCCF9093C6008091C00085FFFCCF60
:1078D0002093C6000895282F205DF0CF982F809127
:1078E000C00085FFFCCF9093C6000895EF92FF92F1
:1078F0000F931F93EE24FF2487018091C00087FD22
:1079000017C00894E11CF11C011D111D81E4E8164B
:1079100082E4F8068FE0080780E0180770F3E09132
:107920000401F091050109958091C00087FFE9CF1E
:107930008091C6001F910F91FF90EF9008950E94D3
:10794000763C982F8091C00085FFFCCF9093C600B5
:1079500091362CF490330CF09053892F089597555D
:10796000892F08951F930E949F3C182F0E949F3CCF
:107970001295107F810F1F9108951F93182F882350
:1079800021F00E94763C1150E1F71F9108951F935A
:10799000182F0E94763C803249F0809103018F5F5E
:1079A000809303018530C1F01F9108958091C0003C
:1079B00085FFFCCF84E18093C6008091C00085FFE5
:1079C000FCCF1093C6008091C00085FFFCCF80E102
:1079D0008093C6001F910895E0910401F091050184
:1079E00009951F9108950E94763C803241F0809164
:1079F00003018F5F80930301853081F008958091AA
:107A0000C00085FFFCCF84E18093C6008091C00058
:107A100085FFFCCF80E18093C6000895E0910401CA
:107A2000F09105010995089540E951E08823A1F0FE
:107A30002D9A28EE33E0FA013197F1F721503040CA
:107A4000D1F72D9828EE33E0FA013197F1F7215064
:107A50003040D1F7815061F708953F924F925F9285
:107A60006F927F928F929F92AF92BF92CF92DF924E
:107A7000EF92FF920F931F93CF93DF93000080E16B
:107A80008093C4001092C50088E18093C10086E015
:107A90008093C2005098589A259A81E00E94143D24
:107AA00024E1F22E9EE1E92E85E9D82E0FE0C02ECA
:107AB00010E1B12EAA24A394B1E49B2EA6E58A2E50
:107AC000F2E57F2EE0E26E2E79E4572E63E5462E36
:107AD00050E5352E0E94763C8033B1F18133B9F107
:107AE000803409F46FC0813409F476C0823409F41B
:107AF00085C0853409F488C0803531F1823521F1A3
:107B0000813511F1853509F485C0863509F48DC0BC
:107B1000843609F496C0843709F403C1853709F423
:107B200072C1863709F466C0809103018F5F80932C
:107B30000301853079F6E0910401F0910501099582
:107B40000E94763C803351F60E94F33CC3CF0E94E2
:107B5000763C803249F78091C00085FFFCCFF092DF
:107B6000C6008091C00085FFFCCF9092C600809136
:107B7000C00085FFFCCF8092C6008091C00085FFC9
:107B8000FCCF7092C6008091C00085FFFCCF609250
:107B9000C6008091C00085FFFCCF5092C600809146
:107BA000C00085FFFCCF4092C6008091C00085FFD9
:107BB000FCCF3092C6008091C00085FFFCCFB09210
:107BC000C60088CF0E94763C863808F4BDCF0E945C
:107BD000763C0E94F33C7ECF0E94763C803809F4CC
:107BE0009CC0813809F40BC1823809F43CC1883942
:107BF00009F48FC080E00E94C73C6CCF84E10E94F2
:107C0000BD3C0E94F33C66CF85E00E94BD3C0E94D3
:107C1000F33C60CF0E94763C809306010E94763C44
:107C2000809307010E94F33C55CF0E94763C80333D
:107C300009F41DC183E00E94BD3C80E00E94C73C66
:107C400049CF0E94763C809309020E94763C809343
:107C5000080280910C028E7F80930C020E94763C79
:107C6000853409F415C18091080290910902892B8D
:107C700089F000E010E00E94763CF801E85FFE4FDA
:107C800080830F5F1F4F80910802909109020817AF
:107C9000190788F30E94763C803209F045CF809125
:107CA0000C0280FF01C16091060170910701660F0F
:107CB000771F7093070160930601A0910802B091AD
:107CC00009021097C9F0E8E0F1E09B01AD014E0F09
:107CD0005F1FF999FECF32BD21BD819180BDFA9A17
:107CE000F99A2F5F3F4FE417F50799F76A0F7B1F4B
:107CF00070930701609306018091C00085FFFCCF5F
:107D0000F092C6008091C00085FFFCCFB092C60003
:107D1000E1CE83E00E94C73CDDCE82E00E94C73CFA
:107D2000D9CE0E94763C809309020E94763C8093D3
:107D300008028091060190910701880F991F909386
:107D40000701809306010E94763C853409F4A6C0A1
:107D500080910C028E7F80930C020E94763C8032D0
:107D600009F0B8CE8091C00085FFFCCFF092C6002C
:107D7000609108027091090261157105B9F140E046
:107D800050E080910C02A82FA170B82FB27011C0E2
:107D9000BB2309F45CC0E0910601F0910701319624
:107DA000F0930701E09306014F5F5F4F46175707B7
:107DB000E8F4AA2369F3F999FECF209106013091E6
:107DC000070132BD21BDF89A90B58091C00085FFB2
:107DD000FCCF9093C6002F5F3F4F30930701209355
:107DE00006014F5F5F4F4617570718F38091C00099
:107DF00085FDE5CE8091C00085FFF8CFE0CE81E023
:107E00000E94C73C67CE0E94763C803209F08CCE3F
:107E10008091C00085FFFCCFF092C6008091C00029
:107E200085FFFCCFE092C6008091C00085FFFCCFAB
:107E3000D092C6008091C00085FFFCCFC092C600E2
:107E40008091C00085FFFCCFB092C60043CEE09188
:107E50000601F091070194918091C00085FFFCCF4D
:107E60009093C6009CCF80E10E94C73C33CE0E9415
:107E7000763C0E94763C182F0E94763C112309F430
:107E800083C0113009F484C08FE00E94C73C22CE29
:107E900080910C02816080930C02E5CE80910C02EF
:107EA000816080930C0259CF809107018823880F4D
:107EB000880B8A2180930B02809106019091070123
:107EC000880F991F90930701809306018091080203
:107ED00080FF09C080910802909109020196909359
:107EE000090280930802F894F999FECF1127E091D6
:107EF0000601F0910701C8E0D1E08091080290915D
:107F00000902103091F40091570001700130D9F34B
:107F100003E000935700E89500915700017001308D
:107F2000D9F301E100935700E89509901990009169
:107F3000570001700130D9F301E000935700E89534
:107F40001395103498F011270091570001700130FB
:107F5000D9F305E000935700E895009157000170B0
:107F60000130D9F301E100935700E895329602976A
:107F700009F0C7CF103011F00296E5CF112480919F
:107F8000C00085FFB9CEBCCE8EE10E94C73CA2CD19
:0C7F900085E90E94C73C9ECDF894FFCF0D
:027F9C00800063
:040000030000780081
:00000001FF
